:020000040800F2
:10000000F80800200D02000889100008AF0F000852
:10001000851000087504000825160008000000007F
:100020000000000000000000000000006B1200084B
:100030000D0D0008000000006D11000859140008A3
:1000400027020008270200082702000827020008EC
:1000500027020008270200082702000827020008DC
:1000600027020008270200082702000827020008CC
:1000700027020008270200082702000827020008BC
:1000800027020008270200082702000827020008AC
:10009000F5150008270200082702000827020008BB
:1000A000270200082702000827020008270200088C
:1000B000270200082702000827020008270200087C
:1000C000270200082702000827020008270200086C
:1000D000270200082702000827020008270200085C
:1000E000270200082702000827020008270200084C
:1000F000270200082702000827020008270200083C
:10010000270200082702000827020008270200082B
:100110002702000827020008BD1400082702000873
:10012000270200082702000827020008270200080B
:1001300000F002F800F05AF80AA090E8000C82449F
:100140008344AAF10107DA4501D100F04FF8AFF27C
:10015000090EBAE80F0013F0010F18BFFB1A43F0A5
:1001600001031847581C0000781C00000A444FF097
:10017000000C10F8013B13F0070408BF10F8014B06
:100180001D1108BF10F8015B641E05D010F8016B4B
:10019000641E01F8016BF9D113F0080F1EBF10F8AF
:1001A000014BAD1C0C1B09D16D1E58BF01F801CBD2
:1001B000FAD505E014F8016B01F8016B6D1EF9D555
:1001C0009142D6D37047000000230024002500266A
:1001D000103A28BF78C1FBD8520728BF30C148BFAA
:1001E0000B6070471FB51FBD10B510BD00F031F892
:1001F0001146FFF7F7FF01F079FA00F04FF803B46A
:10020000FFF7F2FF03BC00F057F8000009488047F1
:1002100009480047FEE7FEE7FEE7FEE7FEE7FEE7E8
:10022000FEE7FEE7FEE7FEE704480549054A064B00
:10023000704700005D14000831010008F80200203A
:10024000F8080020F8040020F804002070477047E8
:100250007047754600F02CF8AE46050069465346D7
:1002600020F00700854618B020B5FFF7DDFFBDE898
:1002700020404FF000064FF000074FF000084FF00D
:10028000000B21F00701AC46ACE8C009ACE8C0099E
:10029000ACE8C009ACE8C0098D46704710B504460B
:1002A000AFF300802046BDE81040FFF7A8BF000074
:1002B000004870479802002001491820ABBEFEE7B5
:1002C000260002007047000000B587B001214806F3
:1002D00000F088FF234800F023F904A800F05BFB3E
:1002E00000208DF817008DF818008DF819008DF892
:1002F0001A008DF8160001208DF81B0000208DF8E3
:10030000130002208DF8140004208DF81500ADF8BC
:10031000100000208DF8120004A9124800F039FAEC
:1003200001208DF80D000020ADF80800ADF80000A8
:10033000ADF80200ADF80400ADF806008DF80B0032
:100340008DF80A0001208DF80C0000208DF80A00BD
:10035000684600F001F901220221024800F010FA7B
:1003600007B000BD0064004010B50C4801F0A3F9CF
:100370000B4801F0A0F90B4801F09DF90A4801F083
:100380009AF90A4801F097F9094801F094F9012116
:100390004FF4EA1000F0BAFD10BD00001800002074
:1003A00024000020300000203C00002048000020F5
:1003B0005400002008B54FF4A06000F09FFE142008
:1003C0008DF8000001208DF8030000208DF8010059
:1003D0008DF80200684600F059FE1C208DF80000E0
:1003E00001208DF8030002208DF801008DF8020035
:1003F000684600F04BFE08BD10B50648816B884783
:100400000548816B88470548816B88470448816BA4
:10041000884710BDB4000020F00000202C0100200F
:10042000680100200EB50121102000F0DBFE6846B7
:1004300001F0D6F80020ADF80600ADF802004FF448
:100440007A70ADF804004720ADF80000694608480E
:1004500001F074F80121064801F04AF80122114622
:10046000034801F062F80121014801F03BF80EBD9C
:100470000010004000BFFEE7B1F5007F3AD00FDC6E
:10048000202928D006DC01291CD004291DD00829E8
:1004900040D11DE0402921D0B1F5807F3AD126E03E
:1004A000B1F5004F31D006DCB1F5806F25D0B1F544
:1004B000006F2FD124E0B1F5803F12D0B1F5003F9D
:1004C00028D111E0154A826025E00822C26022E0AE
:1004D0001022C2601FE0082202611CE010220261AB
:1004E00019E00822426016E01022426013E0042264
:1004F000426010E0042242600DE0042242600AE003
:10050000002282610422426005E00022826104220E
:10051000426000E000BF00BF704700000101010021
:1005200010B504460B48844209D10121480600F069
:1005300069FE00214FF0007000F064FE08E0012128
:10054000880600F05FFE00214FF0806000F05AFE48
:1005500010BD00000064004010B50021837A012224
:1005600002FA03F13D4A126842F001023B4B1A6065
:100570003A4A1C3212688A43384B1C331A60027B99
:10058000CAB9364A0C3212688A43344B0C331A60AB
:100590004288C38842EA0343304A4032847A42F8B0
:1005A00034300288838842EA03432C4A4032847AFA
:1005B00002EBC4025360027B012A19D1274A0C3294
:1005C00012680A43254B0C331A604288038842EABA
:1005D0000343224A4032847A42F83430C288838806
:1005E00042EA03431D4A4032847A02EBC40253605C
:1005F000C27A3AB9194A121D12688A43174B1B1D59
:100600001A6006E0154A121D12680A43134B1B1D9F
:100610001A60028932B9114A143212688A430F4BA8
:1006200014331A600289012A06D10C4A1432126866
:100630000A430A4B14331A60427B012A06D1074A47
:100640001C3212680A43054B1C331A60034A1268B5
:1006500022F00102014B1A6010BD0000006600404C
:1006600070B504460D46002660692840002871D008
:10067000B5F5807F5CD010DC082D35D006DC012D6F
:1006800020D0022D24D0042D72D127E0102D31D09E
:10069000202D35D0402D6BD138E0B5F5004F60D01E
:1006A00009DCB5F5007F49D0B5F5806F4CD0B5F5C4
:1006B000006F5DD14FE0B5F5803F2DD0B5F5003F1F
:1006C00056D12FE0A0682D4900F090FA064651E07F
:1006D000E068032100F08AFA06464BE0E068082152
:1006E00000F084FA064645E0E068102100F07EFA4A
:1006F00006463FE02069032100F078FA064639E01B
:100700002069082100F072FA064633E020691021C2
:1007100000F06CFA06462DE06068082100F066FAE9
:10072000064627E06068102100F060FA064621E0E6
:10073000A069012100F05AFA06461BE0A0690221D7
:1007400000F054FA064615E0A069042100F04EFAC4
:1007500006460FE00FE0A069702100F047FA064658
:1007600008E06068042100F041FA064602E0FFE775
:10077000002600BF00E00026304670BD01010100E8
:100780001AB143690B43436102E043698B43436100
:10079000704730B5024600200023146824F002049C
:1007A0001460146844F00104146000E05B1C546899
:1007B00004F001041CB94FF6FF74A342F6D154684B
:1007C00004F001040CB900206CE08C79012C04D1F8
:1007D000146844F08004146003E0146824F080047A
:1007E0001460CC79012C04D1146844F040041460E6
:1007F00003E0146824F0400414600C7A012C04D146
:10080000146844F02004146003E0146824F0200409
:1008100014604C7A012C04D1146844F01004146064
:1008200003E0146824F0100414608C7A012C04D1C5
:10083000146844F00804146003E0146824F0080409
:100840001460CC7A012C04D1146844F004041460C0
:1008500003E0146824F0040414608C78A407CD78B5
:1008600044EA05640D7944EA05444D7944EA0554A7
:100870000D886D1E2C43D461146824F001041460AB
:10088000002300E05B1C546804F001041CB14FF627
:10089000FF74A342F6D1546804F001040CB10020A7
:1008A00000E0012030BD10B500F5D87303EB011353
:1008B0001B6803F004031372137A53B900F5D8735D
:1008C00003EB01131B6840F2FF7404EA53531360F7
:1008D00009E000F5D87303EB01131B686FF0604467
:1008E00004EAD303536000F5D87303EB01131B68CC
:1008F00003F00203537200F5D87303EB01135B6836
:1009000003F00F03937200F5D87303EB01135B68D8
:100910001B0AD37400F5D87303EB01139B68D372E1
:1009200000F5D87303EB01139B681C0A147300F5E0
:10093000D87303EB01139B681C0C547300F5D87338
:1009400003EB01139B681B0E937300F5D87303EB45
:100950000113DB68D37300F5D87303EB0113DB6875
:100960001C0A147400F5D87303EB0113DB681C0C2C
:10097000547400F5D87303EB0113DB681B0E9374FA
:1009800021B9C36843F02003C36003E0036943F067
:100990002003036110BD00218171C1710172417298
:1009A0008172C1728170C170032101710221417194
:1009B00001210180704710B502460020936803F0C2
:1009C0008063B3F1806F00D110E0936803F000639F
:1009D000B3F1006F01D1012008E0936803F0805368
:1009E000B3F1805F01D1022000E00420042874D01C
:1009F00002F5C07303EB00131B6803F0010402F55A
:100A0000C07303EB00131C600B7A7BB94B7A0C8824
:100A100043EA445302F5C07404EB001424682343F2
:100A200002F5C07404EB0014236010E00B7A4C68EC
:100A300043EAC4034C7A234302F5C07404EB001468
:100A40002468234302F5C07404EB001423608B7AFE
:100A500003F00F038B7202F5C07303EB00135B68A6
:100A600023F00F0402F5C07303EB00135C6002F582
:100A7000C07303EB00135B688C7A234302F5C074E8
:100A800004EB001463608B7B1C064B7B44EA03443D
:100A90000B7B44EA0323CC7A234302F5C07404EBB6
:100AA0000014A3608B7C1C064B7C44EA03440B7C43
:100AB00044EA0323CC7B234302F5C07404EB001407
:100AC000E36002F5C07303EB00131B6843F00104FD
:100AD00002F5C07303EB00131C6010BD10B5044693
:100AE0002068A0F2012030B102283AD0032853D068
:100AF00005286CD11AE037480068401C3549086069
:100B0000084600680A2190FBF1F201FB120060B96F
:100B10003048006842F21071884202D100202D490D
:100B2000086021462C4800F0F3F850E02B4800689C
:100B3000401C2A490860084600680A2190FBF1F22F
:100B400001FB120060B92548006842F2107188422A
:100B500002D10020214908602146214800F0D8F840
:100B600035E020480068401C1E49086008460068BF
:100B70000A2190FBF1F201FB120060B919480068EC
:100B800042F21071884202D10020164908602146C5
:100B9000114800F0BDF81AE013480068401C1249E3
:100BA0000860084600680A2190FBF1F201FB120080
:100BB00060B90D48006842F21071884202D10020ED
:100BC000094908602146064800F0A2F800BF00BFAE
:100BD00010BD0000000000201002002004000020D2
:100BE00054020020080000200C00002002460020D3
:100BF00002EA01030BB1012000E000207047000071
:100C000070B539480068401C3749086000F0D2F9D7
:100C100036480078012805D1354800F09BFB35485F
:100C200000F098FB31480078022848D1324A304918
:100C3000091D324800F090FD2F4A2E49091D304809
:100C400000F08AFD2A49486800F0DCFE2849C9699D
:100C500088612849486800F0D5FE2649C96988613D
:100C60002349486800F0CEFE054600F0E7FE044642
:100C7000244900F0FBFF22D21D49486800F0C2FE63
:100C8000054600F0DBFE04461F4900F0EFFF16D2D8
:100C90001A48174948601A48164948601449486874
:100CA00000F0B0FE1249C96988611249486800F035
:100CB000A9FE1049C969886101200C4908700A48D9
:100CC00000680A21B0FBF1F201FB120008B900F044
:100CD0001FFA0548006842F21071884202D10020D4
:100CE0000149086070BD0000B0000020AC00002089
:100CF0006C0000208C0000200AD7A33B0000E045D8
:100D00000060FA450088DF4500E8F94570470000BB
:100D10002DE9F05F04460D4600260027206860603C
:100D2000287BE97A40EA0120206020686168401A47
:100D3000E060E0682D49884207DAA06B401CA063A0
:100D4000E06800F50050E0610EE0E06841F64C51CB
:100D5000884207DDA06B401EA063E068A0F500504C
:100D6000E06101E0E068E0612068A169411AA06BE0
:100D700001EB4030A060A16B4FF4B47201FB02F0B4
:100D800000F05CFE82462168A269881A00F056FED7
:100D90008346174900F09EFE81464FF08C4100F0DB
:100DA0006FFD8046514600F0FDFC2064E269207D25
:100DB000411C217504F1200141F82020207D0628E6
:100DC00001D100202075002605E004F1200050F834
:100DD00026000744761C062EF7DB062097FBF0F86A
:100DE000404600F02BFEE063BDE8F09FB4E2FFFF59
:100DF0000000B4432DE9F041024600250026002002
:100E000000230024002791F803C00CF00F0591F88F
:100E100003C00CF0100CBCF1000F03D091F802C01D
:100E20004CEA050591F800C0BCF1000F31D0146800
:100E300000202BE04FF0010C0CFA00F3B1F800C0D9
:100E40000CEA03069E4220D183004FF00F0C0CFAEF
:100E500003F7BC4305FA03FC4CEA040491F803C011
:100E6000BCF1280F06D14FF0010C0CFA00FCC2F8BF
:100E700014C00AE091F803C0BCF1480F05D14FF04F
:100E8000010C0CFA00FCC2F810C0401C0828D1D399
:100E90001460B1F800C0BCF1FF0F34DD54680020CD
:100EA0002EE000F1080C4FF0010808FA0CF3B1F83D
:100EB00000C00CEA03069E4221D183004FF00F0CC4
:100EC0000CFA03F7BC4305FA03FC4CEA040491F85E
:100ED00003C0BCF1280F05D100F1080C08FA0CF88A
:100EE000C2F8148091F803C0BCF1480F07D100F19B
:100EF000080C4FF0010808FA0CF8C2F81080401CEA
:100F00000828CED35460BDE8F0810000F0B50A4651
:100F1000002300240021002500F00046B6F1004F18
:100F200002D11D4EF16901E01B4E7168C0F303450B
:100F300083B200F44016B6F5401F08D121F070616D
:100F4000154E766826F07066134F7E6012E000F44E
:100F50008016B6F5801F06D1032606FA05F4A143D4
:100F600041F0706106E0460D360103FA06F6B14322
:100F700041F0706122B1460D360103FA06F63143A5
:100F800000F00046B6F1004F02D1034EF16101E0DE
:100F9000014E7160F0BD00000000014002460020DB
:100FA00093680B400BB1012000E00020704700BFA8
:100FB000FEE7000010B501212D48FFF7EFFF68B9EB
:100FC0002C480078042803DD01202A49487009E0F4
:100FD00028480078401C2749087003E00020254974
:100FE0000870487002212248FFF7D8FF68B92248EC
:100FF0000078042803DD01201F49487009E01E48DD
:101000000078401C1C49087003E000201A49087051
:10101000487004211648FFF7C1FF68B917480078E7
:10102000042803DD01201549487009E013480078C1
:10103000401C1249087003E00020104908704870F5
:1010400008210B48FFF7AAFF68B90D48007804286B
:1010500003DD01200A49487009E009480078401C76
:101060000749087003E0002005490870487010BD6A
:101070000018014010000020120000201400002081
:101080001600002000BFFEE77047000070B5002189
:1010900000230F22C47804B3154C246804F4E064E0
:1010A000C4F5E064210AC1F10403CA40447804FA9B
:1010B00003F184781440214309010E4C0678A155B0
:1010C000047804F01F050124AC4005786D11AD00D3
:1010D00005F1E025C5F8004109E0047804F01F059A
:1010E0000124AC40044D0678761145F8264070BDC9
:1010F0000CED00E000E400E080E100E00249014383
:10110000024A1160704700000000FA050CED00E093
:101110007CB50F4A0F49104800F094F80F4A104967
:10112000104800F08FF80E49086B00F06BFC04B219
:101130000849086B00F066FC05B2002000902346C9
:101140002A464FF400710190074800F081FA7CBDF7
:1011500010020020F0000020B40000205402002003
:10116000680100202C01002000640040704700212D
:101170008161C16101620163704770B50446E16A33
:10118000E06800F0A5FD6062616A206800F0A2FCE2
:10119000A061616A606800F09DFC0546E16900F0AD
:1011A00001FBE061D4E9090100F092FD0546A16868
:1011B00000F090FC206204F11C00216900F034FA78
:1011C000D4E9060100F0EEFA0546216A00F0EAFAD9
:1011D000206304F13000616900F026FA616AA162BF
:1011E00070BD000029B1064AD2690243044BDA619E
:1011F00004E0034AD2698243014BDA617047000080
:101200000010024029B1064A12690243044B1A61D8
:1012100004E0034A12698243014B1A6170470000DF
:101220000010024029B1064A92690243044B9A61B8
:1012300004E0034A92698243014B9A6170470000BF
:101240000010024070B504460D4616460020E060CE
:10125000306CE0622046616B8847206BE860F06B81
:10126000E8622846696B884770BD704710B500F08A
:1012700001F810BD0CB500200190009033480068C3
:1012800040F480303149086000BF3048006800F405
:10129000003000900198401C0190009818B9019806
:1012A000B0F5A06FF1D12948006800F4003010B10A
:1012B0000120009001E0002000900098012843D117
:1012C0002348006840F01000214908600846006883
:1012D00020F0030008600846006840F00200086043
:1012E0001A484068194948600846406848600846FE
:1012F000406840F4806048600846406820F47C10F4
:1013000048600846406840F4E810486008460068B5
:1013100040F08070086000BF0C48006800F000706A
:101320000028F9D00948406820F0030007494860C8
:101330000846406840F00200486000BF034840682B
:1013400000F00C000828F9D10CBD0000001002408C
:101350000020024070B5044620694078C0B9606939
:101360004078A8B90020A060D4E9010100F01AFA81
:10137000054600F047FBE169886101202073607B2E
:10138000012802D0607B022802D14FF47A702080BD
:10139000607B032815D12D4A04F10801002000F0DC
:1013A000DBF9D4E9010100F0FDF9054600F02AFB64
:1013B000E16988612649A06800F058FB01D200204D
:1013C0006073607B022816D14FF08B40A060D4E997
:1013D000010100F0E7F9054600F014FBE1698861BE
:1013E0002088401C20802088B0F57A7F03DD002013
:1013F000208003206073607B012816D1134A04F11A
:1014000008014FF08B4000F0A7F9D4E9010100F08A
:10141000C9F9054600F0F6FAE16988610D49A0684E
:1014200000F024FC01D2022060732069407801287A
:101430000BD160694078012807D1607B28B9207BF7
:10144000012802D160730020207370BD0AD7233CAD
:101450000000704100107F457047000010B5134830
:10146000006840F0010011490860084640681049D2
:1014700008400E494860084600680E4908400B497C
:1014800008600846006820F480200860084640682C
:1014900020F4FE0048604FF41F008860FFF7E6FE6E
:1014A0004FF000600449086010BD000000100240C9
:1014B0000000FFF8FFFFF6FE08ED00E010B5012187
:1014C000074800F021F848B10121054800F00DF867
:1014D0000121034800F006F8FFF792FB10BD000061
:1014E00000100040CA4302827047CA43028270471C
:1014F00021B1028842F00102028004E002884FF626
:10150000FE731A400280704730B502460020002367
:101510000024158A05EA0103958905EA010413B13F
:101520000CB1012000E0002030BD1AB183890B43CB
:10153000838102E083898B43838170470022028884
:101540001D4B98420ED01D4B98420BD0B0F1804FEE
:1015500008D01B4B984205D01A4B984202D01A4B28
:10156000984204D14FF68F731A404B881A43174B99
:10157000984207D0164B984204D04FF6FF431A40CA
:10158000CB881A4302808B8883850B8803850A4B9E
:1015900098420BD0094B984208D00E4B984205D088
:1015A0000D4B984202D00D4B984201D10B7A038625
:1015B0000123838270470000002C01400034014069
:1015C0000004004000080040000C004000100040F3
:1015D0000014004000400140004401400048014028
:1015E0004FF6FF71818000210180C180418001722E
:1015F0007047000000B585B002210948FFF730F8B8
:1016000058B102210648FEF737FF6A460021044818
:10161000FFF749F96846FFF761FA05B000BD000021
:101620000064004000BFFEE770B504460D46294641
:10163000206800F01BFB00D2256085F00046304694
:10164000216800F013FB02D285F00040206070BDDD
:101650002DE9F04385B081460E4614461D46DDE96E
:101660000C7808208DF80A0000208DF808008DF80D
:1016700009000096200A8DF80B00E1B28DF80C10DD
:10168000290A8DF80D10E9B28DF80E10390A8DF87F
:101690000F10F9B28DF810104FEA18218DF81110C3
:1016A00008F0FF018DF8121069464846FFF783F9EC
:1016B00005B0BDE8F08338B50446E07A182803D1B8
:1016C00001210846FFF7AEFD01212068FFF7AAFDC2
:1016D000E07A8DF80300A07A8DF802002089ADF839
:1016E000000069466068FFF785FB38BD00F04EF8E2
:1016F00000BFFEE70146D1E90002904201DD012072
:1017000070470020FCE770B504466068002816DDCD
:101710002068401C2060D4E90001884201DD606837
:101720002060606800F08AF90546206800F086F9BC
:101730000646294600F0A4F8A060A06870BD00200D
:10174000FCE70022026041607047002101607047A1
:1017500001607047416070472DE9F04706460C462E
:1017600015462946304600F0B5F9804629464FF027
:101770007E5000F0ADFA8146216800F0ABF90746D3
:10178000414600F00FF82060BDE8F08710B5FEF785
:1017900011FEFEF731FEFEF7E7FDFEF795FDFEF7C1
:1017A00041FE10BD90EA010F48BF81F0004100F1F9
:1017B0009682421A3CBF801A89184FEAD0524FF0E5
:1017C0007F4C1CEA410FA2EBD15318BF9CEA026F79
:1017D00000F03B804FF0004C4CEA00204CEA012125
:1017E00021FA03FC10EB0C0C1ED202F1FF325FEA6F
:1017F0001C2040EBC25038BF70471CF07F0F4FEAEF
:10180000400C18BFBCF17F4F38BF7047C3F12003B5
:10181000994008BF20F00100BCF17F4F38BF7047EE
:10182000A0F1C04000F01DBA4FEA3C00000A40EBB6
:10183000C25028BF1CF0FF0F4FEA400CE6D018BF83
:10184000BCF17F4F38BF7047EAE79CEA026F05D0D2
:1018500010EA5C0F08BF00F00040704710B500F0C0
:10186000BAF900BF64FBBE3E401058BFC0F1404013
:10187000491058BFC1F140418142EFF300807047E9
:101880004FF47F0C1CEAD0121EBF1CEAD11392EA5F
:101890000C0F93EA0C0F00F0858090EA010F48BF0F
:1018A00042F4807240F4000C41F400002CF07F41BF
:1018B00020F07F4000B58142A2EB03020FF2081C2A
:1018C000ACEB504EC0F100009EF800E04FEA4E0E27
:1018D00000FB0EFC38BF49004FEA2C1C02F5FA024F
:1018E0000CFB0EF34FEACE1E4FEA112C4FEAC1213A
:1018F0000EEB635E42EB22420EFB0CFC4FEA1C53E4
:1019000000FB03114FEA112C4FEA01310EFB0CFCD6
:101910004FEADC4C00FB0C11C14228BF09184CEB0C
:1019200003335DF804EB10EB410143EBC250B2F519
:101930007C0F38BF704729D512F0F00F1CBF00F1A3
:10194000C04000F000407047008182838485868714
:1019500088898B8C8D8E8F919293959697999A9C6E
:101960009D9FA0A2A3A5A7A8AAACAEB0B2B3B5B7DD
:10197000B9BCBEC0C2C5C7C9CCCED1D4D7D9DCDFB3
:10198000E2E6E9ECF0F3F7FAFE0000004FEA400C63
:101990000CF1807CBCF17E4F28BF7047B0F1C04095
:1019A00000F05FB990EA010F0CEAD11348BF42F48E
:1019B0008072624538BF634507D213F47F0F16D09B
:1019C00080EA010000F00040704710B500F003F914
:1019D000097EFC3E00F005B880EA010000F00040FE
:1019E000704780EA010000F0004000F03AB912F4BC
:1019F0007F0F04BF0248704780EA010000F031B950
:101A00000000C07F41000B0ED3F19E0208D950F4B4
:101A100000034FEA032323FA02F048BF4042704715
:101A200010B500F0D8F800BF49922480002070471C
:101A30006FF0004282EA20007047000010F0004181
:101A400048BF4042B0FA80F310FA03F2C3F19D039D
:101A50000BD051EAC35101EB1220530638BF704737
:101A600000F1010008BF20F00100704750EA010CAE
:101A700000F113801CF5000F58BFBCF5000F01D416
:101A80008842704707D710F5000F58BF11F5000FB7
:101A900015D488427047894270471CF5000F04D561
:101AA000BCF5000FF7D5814270474FF0807C1CEBEE
:101AB000400F38BF1CEB410F01D28142704710B577
:101AC00000F089F8922449004FF000504FF0805107
:101AD000FFF7CABE4FF47F0C1CEAD0121EBF1CEAEF
:101AE000D11392EA0C0F93EA0C0F00F0478090EAB2
:101AF000010F48BF42F480724FF0004C4CEA0020C6
:101B00004CEA012102EB0302A0FB0113A2F5000243
:101B1000002918BF43F001035B0028BF4FEA3303DD
:101B200042EB22425FEA132C4CEBC2502EBFBCEBBF
:101B3000436FB2F57C0F70474FEA036CBCF1004F66
:101B400008BF20F00100B2F57C0F38BF70470BD5FD
:101B500082F0FF0212F5803FC8BF704700F1C0401D
:101B6000D8BF00F00040704700F5000C5FEA4C0C55
:101B700048BF7047B0F1C04000F073B890EA010F61
:101B80000CEAD11348BF42F48072624538BF634506
:101B900004D280EA010000F00040704710B500F068
:101BA0001AF800BF8900013E00F007B800F009B83C
:101BB0005FEA410C5FEA1C6C08D080EA010000F08B
:101BC00050B85FEA400C5FEA1C6CF6D14FF0004061
:101BD000A0F5800070470EF1020E2EF0030E5EF8A5
:101BE000044B244204D44FEA4102B2F17F4F11D892
:101BF0004FEA4003B3F17F4F0CD80ED14FEAD07CAF
:101C0000B2F17F4F0CEB4C0C0CF1020C08BF4CEB0B
:101C1000D17C04E04FF0080C01E04FEAD17C0CEBE2
:101C20004C0324FA03F404F00704B4F1040C06D2C4
:101C30000EEB840CBDE810404CF0010C6047DFE86F
:101C40000CF0070802024FF00040A0F5800010BD24
:101C50000846420018BFD2F1807288BF00F00040F1
:101C600010BDFF2141EAD050C005704751EA000C79
:101C700000F113801CF5000F58BFBCF5000F01D414
:101C80008142704707D711F5000F58BF10F5000FBC
:101C900015D481427047894270471CF5000F04D566
:101CA000BCF5000FF7D5884270474FF0807C1CEBE5
:101CB000410F38BF1CEB400F01D28842704780EAC9
:101CC000010081EA000180EA0100FFF7F8BE000090
:101CD00090EA010F48BF81F000413FF56AAD421A1A
:101CE00004D882F00042A0EB020011444FEAD05227
:101CF0004FF07F4C1CEA410FA2EBD15318BF9CEA76
:101D0000026F4AD04FF0004C4CEA00204CEA01210F
:101D100021FA03FCB0EB0C0C0FD412F0FE0F36D0FE
:101D20005FEA4C001DD5001240EBC25038BF70472F
:101D30001CF03F0F18BF70470BE0A2F101025FEAF1
:101D40001C2040EBC25038BF70471CF07F0F18BFFB
:101D50007047C3F12003994014BF401E20F00100DA
:101D6000704780084FEA122308BF7047B0FA80FC22
:101D7000A2EB0C02CCF1280C60FA0CF093EA122FC3
:101D800004BF00EBC25070474FEAC3707047130A9C
:101D90005FEADC1008BF7047F6E79CEA026F04D0E8
:101DA00010EA5C0F08BF0020704710B5FFF713FF63
:101DB00040DFF63E81F0004070470000DC1D000867
:101DC00000000020100200006C010008541E0008F2
:101DD00010020020E8060000C801000801184208AF
:101DE000140C01407C0103480C45020318401518EF
:101DF0000140016B03480C9A020C9A040C1A080C5F
:101E00003A044D193CC4040310320119111B20126D
:101E10000413C80114201002EA20201A141C1A16F8
:101E2000041AEC201A542002190213FA44041C204C
:101E30009945137B111B086F0409BE3C1343171B04
:101E40000807041A51041A4B041A55040B48F516D6
:041E5000240000006A
:0400000508000131BD
:00000001FF
